:020000040002F8
:1070000058B6002099750200A1750200197302009C
:10701000A5750200A7750200A97502000000000016
:10702000000000000000000000000000F9740200F1
:10703000AD750200000000003D7502008D7B02006E
:10704000FD790200097A0200ED7D0200B3750200AD
:10705000B3750200B3750200B1760200B375020089
:10706000B3750200B3750200B3750200B375020078
:10707000B3750200B3750200B3750200B375020068
:10708000B3750200817A0200B3750200B375020085
:10709000C17A0200B3750200257B0200B3750200BD
:1070A000B3750200B3750200B3750200B375020038
:1070B000B3750200B375020000000000000000007C
:1070C000B3750200B3750200B3750200997A02002D
:1070D000B3750200B3750200B3750200FD7D0200B6
:1070E000B3750200B3750200B37502000000000022
:1070F00000000000B375020000000000AD7A02003D
:10710000000000000000000000000000000000007F
:10711000000000000000000000000000000000006F
:10712000000000000000000000000000000000005F
:10713000000000000000000000000000000000004F
:10714000000000000000000000000000000000003F
:10715000000000000000000000000000000000002F
:10716000000000000000000000000000000000001F
:10717000000000000000000000000000000000000F
:1071800000000000000000000000000000000000FF
:1071900000000000000000000000000000000000EF
:1071A00000000000000000000000000000000000DF
:1071B00000000000000000000000000000000000CF
:1071C00000000000000000000000000000000000BF
:1071D00000000000000000000000000000000000AF
:1071E000000000000000000000000000000000009F
:1071F000000000000000000000000000000000008F
:10720000DFF810D000F016FA00480047A1EF0200A6
:10721000AFF3008058B6002030B4044654E8000FA5
:107220000D4644E80053002BF8D1156030BC704780
:1072300030B4044654E8000F40EA010544E8005326
:10724000002BF7D1156030BC704730B4044654E8C9
:10725000000F00EA010544E80053002BF7D1156048
:1072600030BC704730B4044654E8000F80EA010592
:1072700044E80053002BF7D1156030BC704730B4A0
:10728000044654E8000F00EB010544E80053002BCE
:10729000F7D1156030BC704730B4044654E8000F95
:1072A000A0EB010544E80053002BF7D1156030BC7A
:1072B000704770B404464FF0000054E8006F0D684A
:1072C000AE4207BF44E80023012044E800630E609B
:1072D000002B1CBF0020F0E770BC704730B40446A0
:1072E00054E8000F88422CBF451A054644E8005375
:1072F000002BF5D1156030BC7047000000B583B09D
:1073000002900091019244F2010071466A4601F038
:107310005BF803B000BD0000094B1EF0040F1CBF5A
:10732000EFF309801847EFF308800649064A8842C0
:1073300001D8904202D88D464FF000001847000057
:107340007177020058B600205896002030B450E8FB
:10735000012F93B2C48923448489A34228BF1B1BF5
:107360000489A34202BFBFF32F8F002007E0C3EAC6
:10737000020340E80134002CE9D14FF001000A601B
:1073800030BC704750E8012FC2EA024240E80121B8
:107390000029F7D1704730B450E8022F1FFAA2F34A
:1073A000C488A34202BFBFF32F8F00200DE0C48921
:1073B00023448489A34228BF1B1BC2EA034340E83D
:1073C0000234002CE8D14FF001000A6030BC704755
:1073D00050E8022FC2EA224240E802210029F7D1F8
:1073E0007047034653E8022FD988B2EB324F4FF073
:1073F000000017BF92B241EA014142EA014104E0B4
:107400005A68B2EB324F08BF012043E80212002A4B
:10741000E8D1704730B4044654E8000F0D4644E804
:107420000053002BF8D1156030BC704730B40446CF
:1074300054E8000F40EA010544E80053002BF7D15F
:10744000156030BC704730B4044654E8000F00EAC1
:10745000010544E80053002BF7D1156030BC70479C
:1074600030B4044654E8000F80EA010544E80053B4
:10747000002BF7D1156030BC704730B4044654E897
:10748000000F00EB010544E80053002BF7D1156015
:1074900030BC704730B4044654E8000FA0EB01053F
:1074A00044E80053002BF7D1156030BC704770B42E
:1074B00004464FF0000054E8006F0D68AE4207BF6D
:1074C00044E80023012044E800630E60002B1CBF49
:1074D0000020F0E770BC704730B4044654E8000F59
:1074E00088422CBF451A054644E80053002BF5D1CD
:1074F000156030BC70470000264B19680868B0E87A
:10750000F04F80F30988BFF36F8F4FF0000080F3D6
:1075100011887047000000000748006880F3088861
:1075200062B661B6BFF34F8FBFF36F8F4FF4F07049
:1075300080F3118800DF000000700200EFF3098083
:10754000BFF36F8F134B1A681EF0100F08BF20EDAA
:10755000108A20E9F04F106008B44FF0400080F32B
:107560001188BFF34F8FBFF36F8F15F06DFD4FF094
:10757000000080F3118808BC19680868B0E8F04F73
:107580001EF0100F08BFB0EC108A80F30988BFF31B
:107590006F8F7047347200200648804706480047C6
:1075A000FEE7FEE7FEE7FEE7FEE7FEE7FEE7FEE7B3
:1075B000FEE7FEE7CD7B0200017202000048704743
:1075C00050E0030040EA01039B0703D009E008C92B
:1075D000121F08C0042AFAD203E011F8013B00F898
:1075E000013B521EF9D27047D2B201E000F8012BE4
:1075F000491EFBD270470022F6E710B513460A4633
:1076000004461946FFF7F0FF204610BD421C10F853
:10761000011B0029FBD1801A704730B504460020B9
:10762000034600E05B1C934203D2E05CCD5C401B50
:10763000F8D030BD064C074D06E0E06840F001038D
:1076400094E8070098471034AC42F6D3FFF7DCFD0E
:10765000D8FE0300F8FE030070B58C1810F8015B2B
:1076600015F0070301D110F8013B2A1106D110F8DB
:10767000012B03E010F8016B01F8016B5B1EF9D1DF
:107680002B0705D40023521E0DD401F8013BFAE765
:1076900010F8013BCB1A921C03E013F8015B01F8D0
:1076A000015B521EF9D5A142D8D3002070BD000065
:1076B0002DE9FC4700260020009001904FF48077D0
:1076C0000125002410E038460AF08EFB40B100BFCF
:1076D00025480068284018B138460AF077FB2E4349
:1076E0006D00381D87B2641C082CECD34FF4BE70BB
:1076F0000AF07AFB50B14FF4BE700AF067FB46F017
:1077000000466A46022100200AF00CFAF0B210B3DB
:10771000012500241DE005EA0600C0B100BF1348A2
:1077200050F82400C0F30520814600BF0F4850F8F0
:107730002400C0F301408246204604F0A3F88046AE
:10774000B8F1000F02D051464846C04700BF6D0057
:10775000641C082CDFD306F0004010B1684611F01D
:10776000B1F8BDE8FC8700000463004010650040EC
:107770002DE9FC41074600BF0AF004FF00BF00BF2F
:107780000AF04AFC0028FBD100BF00BF3C46484835
:107790000668002C29D04749474BC91AC90801235C
:1077A00043EA014045A1A2690AF0CEFDD4E90201F5
:1077B000CDE900013F49404D491BC908012545EA73
:1077C000014044A1D4E900230AF0EEFDE0690090F5
:1077D0003849394D491BC908012545EA01404BA1EB
:1077E000D4E904230AF0CCFD09E03249324A891A6F
:1077F000C908012242EA01404EA10AF09BFD2C4833
:10780000001D006800F0020048B12A492A4A891A7E
:10781000C908012242EA014053490AF08BFD0025C4
:1078200015E00120A840304080B1504850F82500B4
:1078300060B14E4951F825201E491F4BC91AC9088D
:10784000012343EA01404AA10AF07EFD6D1C1A2D76
:10785000E7D306F0800060B115490C310A6815497C
:10786000154BC91AC908012343EA014043A10AF094
:107870006BFD06F4004060B10D4910310A680D49F6
:107880000D4BC91AC908012343EA014043A10AF07C
:107890005BFD00BF0648C830006800F0010000B181
:1078A00000BE00BF384600F087F8BDE8FC8100004C
:1078B00028ED00E0A8FF030008FF03004841524400
:1078C000204641554C54206174203078253038587A
:1078D00000000000202052303A2020307825303837
:1078E00058202052313A2020307825303858202036
:1078F00052323A2020307825303858202052333AFE
:1079000020203078253038580000000020205231E7
:10791000323A2030782530385820204C523A2020F6
:1079200030782530385820205053523A203078256E
:1079300030385800537461636B2076696F6C6174E2
:10794000696F6E3A20737461636B20706F696E7437
:107950006572206F75747369646520737461636BFD
:1079600020617265612E000038F40300F870002079
:1079700043617573653A2025732E00004D656D4D8A
:10798000616E616765204661756C74204164647244
:107990006573733A2030782530385800427573206B
:1079A0004661756C7420416464726573733A20306B
:1079B000782530385800000000BF00BF00BF00BF6E
:1079C00000BFBFF34F8F00BF00BF00BF0948006872
:1079D00000F4E06008490843001D0649086000BF44
:1079E00000BF00BFBFF34F8F00BF00BF00BF00BF8D
:1079F00000BFFDE70CED00E00000FA0510B50BF04C
:107A000065FE0BF08DFC10BD10B51948006838B14B
:107A10001848006800F0010010B100201449086007
:107A200013480C30006870B11248006800F008007C
:107A300048B100200E490C3108600F48006810B1B1
:107A40000D48006880470A481030006870B1094846
:107A5000006800F0100048B10020054910310860AE
:107A60000648006810B105480068804710BD000056
:107A700000110040041300402872002024720020EE
:107A800010B5034A1068034A1168884710BD00000A
:107A9000C0700020BC70002010B50249024806F0FA
:107AA0005EFF10BDE88500200030024010B502499D
:107AB000024806F054FF10BD0C86002000F0024082
:107AC0003EB516480068019002A809F03FF9044647
:107AD0001CBB1348006800B3029800F0010030B1ED
:107AE00000208DF8000068460D4909688847029813
:107AF00000F0020030B101208DF80000684608490E
:107B000009688847029800F0040030B102208DF81F
:107B1000000068460249096888473EBD1872002087
:107B2000F071002070B5094A0021084600F074FD8C
:107B3000044600BF25463DB100BF05A24FF4C47105
:107B40002846FFF7DBFB00BF00BF70BD958A02002F
:107B50002E2E5C2E2E5C2E2E5C2E2E5C2E2E5C2E5F
:107B60002E5C636F6D706F6E656E74735C736F66A1
:107B7000746465766963655C636F6D6D6F6E5C6E72
:107B800072665F7364682E630000000010B500BF6A
:107B900000BFEFF311800446402000F043FA00BF1D
:107BA00015F0A4FD20B14FF080500349086040BF9C
:107BB000002000F037FA10BD04ED00E00148024952
:107BC000086070470090D0037072002010B508F074
:107BD00019FB40B10020774908604FF08041C1F89F
:107BE00010017549086008F02FFB002855D0734834
:107BF0000068734908607148001D0068091D08602D
:107C00006E4808300068091D08606C480C30006838
:107C1000091D0860694810300068091D0860674840
:107C200014300068091D0860644818300068644911
:107C30002031086061481C300068091D08605F48F9
:107C400020300068091D08605C4824300068091D68
:107C500008605A4828300068091D086057482C30D1
:107C60000068091D086055483030006854494031AB
:107C70000860524834300068091D08604F483830A9
:107C80000068091D08604D483C300068091D086007
:107C90004A4840300068091D086008F0F7FA10B142
:107CA00048484949086008F079F910B1FB20474974
:107CB000086008F095F938B14548017845480068F2
:107CC00061F303004349086008F0ACF918B14FF4C0
:107CD00000704149086008F0C7F940B13F480068AA
:107CE00000F0010018B16FF001003C4908603C4809
:107CF000006840F470003A49086000BF00BF00BF50
:107D0000BFF34F8F00BF00BF00BF00BF00BF00BF69
:107D1000BFF36F8F00BF00BF00BF00BF08F050FA75
:107D200020B13048006824492031086000BF2D4848
:107D30000838006800F0004028B92A48001F006891
:107D400000F0004090B301200CF08AFD122025497C
:107D5000083908600CF08EFD12214FF01020C0F899
:107D600004120CF087FD00200CF07AFD00BF00BF6C
:107D700000BF00BF00BFBFF34F8F00BF00BF00BFF9
:107D800017487C38006800F4E06017490843001D7C
:107D900013497C39086000BF00BF00BFBFF34F8F9D
:107DA00000BF00BF00BF00BF00BFFDE7FFE7FFF758
:107DB00005FF10BD0C010040380500400404001010
:107DC00020C50040488103008C56004018F5004053
:107DD00058020010E40E00404096024000040040AB
:107DE00088ED00E0081200100000FA0510B5024905
:107DF0000868804710BD0000687000202DE9F0473A
:107E000000BF1F48006807463E46002414E096FA6B
:107E1000A6F0B0FA80F528464FF4807101EB80019E
:107E2000894648460BF0C8F910B10120A840044328
:107E30000120A840864300BF002EE8D104F40000D2
:107E400008B1012000E00020804624F400040BE08B
:107E500094FAA4F0B0FA80F50A4951F82500804759
:107E60000120A840844300BF002CF1D114F07CFD18
:107E7000B8F1000F02D00349C86D8047BDE8F08714
:107E800004730240ECDB030030B501460A46C81714
:107E900001EBD0604011800000F1E020D0F800013B
:107EA0000B46CC1701EBD4646411A1EB44150124FB
:107EB000AC40204008B1012030BD0020FCE70000AC
:107EC000002807DB00F01F0201219140024A43090C
:107ED00042F823107047000080E200E0002817DB22
:107EE00000F01F02012191400A4A430942F8231081
:107EF00000BF00BF00BFBFF34F8F00BF00BF00BF78
:107F000000BF00BF00BFBFF36F8F00BF00BF00BF47
:107F10007047000080E100E000280DDB00BF00BFDB
:107F200000F01F02012191404209920002F1E0227B
:107F3000C2F8001100BF00BF70470000002807DB37
:107F400000F01F0201219140024A430942F8231028
:107F50007047000000E200E010B5002804DB4A078B
:107F6000130E054A135406E04A07140E034A00F0A4
:107F70000F031B1FD45410BD00E400E018ED00E017
:107F800000BF00BF00BFBFF34F8F00BF00BF00BFE7
:107F90000948006800F4E06008490843001D0649EC
:107FA000086000BF00BF00BFBFF34F8F00BF00BF1E
:107FB00000BF00BF00BFFDE70CED00E00000FA05C8
:107FC00002E008C8121F08C1002AFAD170477047A2
:107FD000002001E001C1121F002AFBD17047000000
:107FE0000146202908DA012088400A4A104008B1D9
:107FF000012070470020FCE7402909DAA1F12000A8
:10800000012202FA00F008B10120F2E70020F0E7B7
:108010000120EEE7FC06FFBD00BFEFF3108108462C
:1080200072B67047C1B281F311887047F8B5054642
:108030000E46D6B9694628460FF0C6F9044643F203
:1080400002018C420AD000BF274637B100BF3B4A2D
:10805000B2213846FFF752F900BF00BF9DF800007B
:10806000C0F3400000B1F8BD00BF002128460FF06A
:10807000BDF90446002C5ED0112C5CD00D2C21D112
:108080002F49304A891AC908022242EA01402A4689
:108090002D490AF059F91321284676DF0446002CB1
:1080A00049D020460AF0AAFE07462549254A891AE2
:1080B000C908022242EA01402B463A4623A10AF0AF
:1080C0004FF938E00B2C0BD11D491E4A891AC908FB
:1080D000022242EA01402A462A490AF035F92AE0FA
:1080E00043F2020084420BD11549164A891AC90885
:1080F000022242EA01402A4623490AF025F91AE001
:1081000020460AF07BFE07460D490E4A891AC90827
:10811000012242EA01402B463A461CA10AF020F90E
:1081200000BF274637B100BF044AE1213846FFF7B8
:10813000E5F800BF00BF00BF95E7000008ED0300B1
:1081400040FF030008FF0300A8E8030073645F62B8
:108150006C655F6761705F646973636F6E6E6563A2
:108160007428292072657475726E656420257320E9
:108170006F6E20636F6E6E5F68616E646C65202544
:10818000642E000068E903001CE903004173736575
:108190007274696E672E20706D5F636F6E6E5F73B1
:1081A000656375726528292072657475726E6564E1
:1081B000202573206F6E20636F6E6E5F68616E6442
:1081C0006C652025642E000070B505460C4605B18F
:1081D0000CB9002070BD287840082178B0EB510F11
:1081E00001D00020F6E70622611C681CFFF715FA93
:1081F00008B90120EEE70020ECE710B50446204660
:1082000003F0E4FA00BA10BD014601F0030008B91A
:10821000012070470020FCE7024650680068401EBD
:10822000084008B9012070470020FCE70246002101
:1082300004E0505C08B101207047491C0629F8D3BE
:108240000020F9E710B50346D868884206D8881898
:10825000401E1C69A04201D8012010BD0020FCE78F
:1082600010B504466CB10848C068A04209D8064859
:108270000069A04205D3204606F005FC08B10120A4
:1082800010BD0020FCE700007472002070B50446A9
:108290000D4604F22740FFF7C9FF0646012D06D020
:1082A000022D0DD0032D11D0042D19D113E0A0798A
:1082B00028B194F8240010B90EB1012070BD00BFA0
:1082C000E07910B10EB10220F8E700BF207A08B1C2
:1082D0000320F3E700BF607A08B10420EEE700BF97
:1082E0000020EBE70146481C052290FBF2F302FB5D
:1082F0001300C0B27047014691F82420012A01D131
:10830000EE2000E01F20704710B50122022100205E
:1083100003F098F9044600BF1CB1072C01D0204699
:1083200010BD00BF07220221012003F08BF9044693
:1083300000BF1CB1072C01D02046F1E700BF0A2284
:108340000021084603F07EF9044600BF1CB1072C4B
:1083500001D02046E4E700BF0020E1E770B58CB013
:1083600004460D461646002005E0C0F10F01615C91
:108370000DF80010401C1028F7D30D2104A8FFF7BA
:108380003AF9002005E02A5CC0F10F0304A9CA54A1
:10839000401C0328F7D3684646DF002005E0C0F103
:1083A0000F0208A9895C3154401C0328F7D30CB094
:1083B00070BD000010B5044602480178204601F067
:1083C000B1F910BDD06F00202DE9FE4307460E46DF
:1083D000144672B600BF0AF0D5F800BF00BF09F01E
:1083E0001BFE0028FBD100BF00BF012F0CD06FF493
:1083F0008050384498B1B0F5405F2CD06FF44051B4
:108400000844002847D115E03149324A891AC90881
:10841000012242EA014030A109F08CFF47E02C49DB
:108420002C4A891AC908012242EA014032A109F006
:1084300081FF3CE025462649DFF898C0A1EB0C01FE
:10844000C9084FF0010C4CEA014034A1D5E90032D3
:1084500009F086FF2BE02546A8680AF0CFFC80468D
:10846000D5E900108DE8430019491A4BC91AC9080B
:10847000012343EA014043462FA1AA6809F0AAFF5D
:108480001349144A891AC908012242EA014034A159
:1084900009F050FF0BE00E490E4A891AC908012263
:1084A00042EA0140324633A109F04EFF00BF00BF4F
:1084B00000BF3648006800F0010000B100BE00BFF8
:1084C00022463146384600F063F8BDE8FE830000DE
:1084D000C8FF030008FF0300534F46544445564964
:1084E00043453A20415353455254494F4E2046414B
:1084F000494C454400000000534F465444455649FA
:1085000043453A20494E56414C4944204D454D4F34
:1085100052592041434345535300000041535345B2
:108520005254494F4E204641494C454420617420E5
:1085300025733A25750000004552524F522025758B
:10854000205B25735D2061742025733A25750D0A23
:1085500050432061743A203078253038780000008C
:10856000456E64206F66206572726F72207265704E
:108570006F727400554E4B4E4F574E204641554C2E
:10858000542061742030782530385800F0ED00E038
:1085900018B5012300939DF800301E4B18605960F8
:1085A0009A606FF48043034463B1012B19D1194BD6
:1085B000DA60DB681B68174CA3612346DB685B68E5
:1085C000E3610EE0134B1A611B699B68114C6361F8
:1085D00023461B691B68A36123461B695B68E36133
:1085E00000BF00BF0B4B1B680A4B5B68094B9B68C5
:1085F000084BDB68074B1B69064B5B69054B9B69A6
:10860000044BDB6972B600BF9DF80030002BFBD134
:1086100062B618BDB88800202DE9F84307460C461D
:10862000904626480088844244DC4FF6FF750020BF
:108630000090684600F058F900BF214890F800907B
:108640002048007807F09EFC484501D1012000E059
:10865000002030B91B480578007807F093FC1949D1
:1086600008709DF8000000F045F94FF6FF70854254
:108670001ED01548006840F835808FB1002C0FDD02
:10868000124909680D4A128805FB02102246394634
:10869000FEF798FF0C48006800EBC500848005E0F9
:1086A00000200949096801EBC5018880002600E027
:1086B000042600E009263046BDE8F88392700020C9
:1086C0009070002091700020887000208C70002035
:1086D0002DE9F0411AE0164804781648006816495A
:1086E000098804FB01051548006800EBC400868872
:1086F0001248006850F8347031462846B8470C4894
:10870000007807F03FFC0A49087000BF00BF002056
:1087100058B900BF0649087809490978814201D152
:10872000012100E000210029D5D0BDE8F081000042
:10873000907000208C7000209270002088700020C3
:108740009170002030B50346481C4FF6FF7505EACE
:10875000C004104600F003050DB9012500E0002516
:108760000DB9072030BD084802601019074D286078
:108770000020074D2870074D2870074803800748E0
:1087800001800020EEE70000887000208C7000203F
:108790009170002090700020927000209470002052
:1087A00010B5024803F0ECFC10BD000098700020EA
:1087B00030B503460C460AB9072030BD19684FF0A2
:1087C000FF358D60CD604A61012C01D1012000E0B0
:1087D000002008610020F0E738B5134800680090D9
:1087E0000823582211491248006807F07CFD04460E
:1087F0000CB1204638BD0F4A69460F4803F0C6FC4D
:1088000004460CB12046F5E701210B4803F064FD56
:1088100001230A4A1946084803F084FC012008494C
:1088200008702046E6E70000CCDC0300D888002072
:10883000BCDC0300BF95030098700020FFFF7F00A1
:10884000A47000202DE9F84306460D4690463446B4
:1088500000200090684600F047F84FF0FF33D4E95D
:10886000021059405840014308D105F05DF8401905
:1088700041F10001C4E90201012700E000279DF851
:10888000000000F037F817B90020BDE8F883C4F8FD
:108890001880206900B125612146002012F0B2FD48
:1088A000F3E7F8B50446254600200090684600F03E
:1088B0001BF84FF0FF33D5E90210594058400143EF
:1088C00001D1002604E04FF0FF31A960E9600126E4
:1088D0009DF8000000F00EF80EB90020F8BD294602
:1088E000012012F08FFDF9E710B50446204611F083
:1088F0007FF810BD70B5044625460E488068B0B1BB
:10890000ADB9FFF789FB06460A4800680A490860C6
:10891000084840684FF0E021C1F8040100200549F3
:1089200088601EB900BF62B600BF00BF00BF00BFB5
:1089300070BD00004089002000E100E0F8B5054668
:108940000C4617462088001DB84201D90C20F8BDFE
:10895000684679DF064600BF304600B1F7E700BF42
:108960000320218868542088401C208019202188F9
:1089700068542088401C208020884119BDF80000E0
:1089800012F084FF2188084420800020DFE770B5C2
:1089900005460C462068401C28B1206809F0F6F90D
:1089A000206809F089F86068401C18B100216068EF
:1089B00009F036F82868A169C0F8241500BF617D68
:1089C000227D286841EA0203C0F86C3500BFD4E973
:1089D000001228680AF04CFA207D012814D1A06802
:1089E000401C18B10021A06809F01AF8E068401C8A
:1089F00028B1E06809F0CAF9E06809F05DF8D4E947
:108A0000022128680AF01CFA70BD70B505460C46B4
:108A10002068401C28B1206809F0C5F9206809F0D9
:108A200057F86068401C18B10021606809F005F82B
:108A30002868A169C0F8241500BF617D227D2868DF
:108A400041EA0203C0F86C3500BFD4E9001228687F
:108A50000AF048FA207D012814D1A068401C18B102
:108A60000021A06808F0E9FFE068401C28B1E06838
:108A700009F099F9E06809F02BF8D4E90221286897
:108A80000AF011FA70BD70B504460D46204606F096
:108A90001DF970BD70B504460D460AF08BF870BD27
:108AA00010B50446637903F003022179208806F0AB
:108AB000C5F810BD10B50446207918B9204600F05D
:108AC00007F803E02046FFF7EBFF00BF00BF10BD33
:108AD0002DE9FE4307463E884FF000080022594822
:108AE0000178304600F034FE7879C0F3800028B970
:108AF000002138460CF0CEFEBDE8FE8306F58071FD
:108B000088B201AB012207210DF0E6FF0546C5B191
:108B100028460AF073F981464B494C4A891AC9081C
:108B2000012242EA014033464A46494909F018FC0D
:108B30002946304611F080FA002138460CF0AAFE92
:108B4000DAE7304605F030FB04464FF6FF718C4201
:108B50001BD1029805F078FA04464FF6FF70844264
:108B600013D02146304605F0FDFA3046FFF722FCCF
:108B700058B9304611F0F4F93046FFF71BFC20B924
:108B8000002138460CF086FEB6E74FF6FF708442AF
:108B90001FD10EF061F904464FF6FF70844212D1E6
:108BA00029492A4A891AC908012242EA014029A111
:108BB00009F0C0FB0421304611F03EFA002138468E
:108BC0000CF068FE98E72146304605F0CBFA4FF0EE
:108BD000010806F5807188B2224607210EF004F8DC
:108BE000054625B9012138460CF054FE28E0862DB3
:108BF00007D1304611F0E6F9012138460CF04AFE63
:108C00001EE028460AF0FAF881460F490F4A891AF1
:108C1000C908012242EA014033464A461A490094F3
:108C200009F0AEFB2946304611F006FA002138461D
:108C30000CF030FEB8F1000F02D0204605F09CFA8F
:108C400000BF59E7CD6F002048FF030008FF030075
:108C5000C8EF0300436F756C64206E6F7420616C05
:108C60006C6F63617465206E657720706565725FF7
:108C7000696420666F7220696E636F6D696E67202C
:108C8000626F6E642E000000E4F00300002114E027
:108C90000C48D0F81024012308E000BFD068007908
:108CA000884201D1002303E0D0680268002AF4D191
:108CB00000BF0BB108467047491C0A29E8DB4FF09A
:108CC000FF30F8E7E08D0020F0B58FB004460D4688
:108CD000287B0190202107A8FEF78DFC42F6192081
:108CE000ADF81C000120ADF82000ADF8220001A86D
:108CF0000990617C9DF8290061F304108DF829002A
:108D00009DF8290020F00200801C8DF82900A87B26
:108D10008DF82F00687B8DF82D00A088A21D07A973
:108D200002F02AFE064616B130460FB0F0BDA86824
:108D300000B36846A96802F0D1FB0746142102A8D7
:108D4000FEF759FC42F60810ADF80800E87B8DF8F4
:108D50000E00ADF81270BDF81200ADF81600CDF897
:108D600018D0E08804F10E0202A903F046F9064685
:108D70003046DAE70020E08100BFD6E770B5044650
:108D80000D4621462846AEDF0646304670BD0146F8
:108D9000102903DBA1F11000C0B2704741F0800040
:108DA000FBE72DE9F04104460F46154615B90E20A4
:108DB000BDE8F0810020286000BF0CB90E20F7E765
:108DC00000BF00BF206808B90E20F1E700BF00BF58
:108DD000E088C11700EB91718910A0EB810109B106
:108DE0000720E5E700BF384600F014FCC6B2142E99
:108DF00001D10520DCE72079B04201DC0420D7E76F
:108E0000E188206806FB010028600020D0E72DE9FA
:108E1000FC410546884616460024378800203080ED
:108E200095F82D0058B13A463146404600F0B4FC62
:108E3000044600BF204608B1BDE8FC8100BFA87809
:108E400050B13A4631464046FFF778FD044600BF30
:108E5000204600B1F0E700BFE87860B1E97848B299
:108E60003B463246414604F039F9044600BF2046ED
:108E700000B1E1E700BF686868B1696891F9000076
:108E80003B463246414612F02CFB044600BF2046CA
:108E900000B1D1E700BF288900280EDD4346062235
:108EA000022105F10800CDE9006714F01BF8044623
:108EB00000BF204600B1BFE700BF288A00280EDDB2
:108EC00043460722032105F11000CDE9006714F0A5
:108ED00009F8044600BF204600B1ADE700BF288B6B
:108EE00000280EDD43461522142105F11800CDE9B6
:108EF000006713F0F7FF044600BF204600B19BE770
:108F000000BF286A58B13B4632464146286A02F003
:108F1000D3FE044600BF204600B18DE700BF686A5B
:108F200058B13B4632464146686A06F058F8044656
:108F300000BF204600B17FE700BF95F82C00002855
:108F40000BDD3B4632464146284611F067FA04469F
:108F500000BF204600B16FE700BF287858B13B46FC
:108F600032464146284606F064FF044600BF2046CC
:108F700000B161E700BF20465EE7F8B504460E4643
:108F80001546002000902B466A463146204600F0E8
:108F900008F807460FB90020F8BDBDF800002044CE
:108FA000FAE7F0B504460D461E4604B10AB90020A2
:108FB000F0BD002103E0605C401C084481B2481C05
:108FC000A84206DA10888842F5DC481C205CB042D2
:108FD000F1D1A94201DB0020EAE7881C87B2605C7E
:108FE00010B1605C401E00E0002083B213B1F8189D
:108FF000A84201DD0020DBE717801846D8E72DE9FD
:10900000FF4104460D46164600BF1CB90E2004B0B1
:10901000BDE8F08100BF207808B90820F7E715B94E
:109020000EB90E20F3E7002000900190029003900B
:10903000DDB1D4F82004016804F15500814200D06C
:1090400001E004F2431000902046FFF754F9ADF818
:10905000040001AA28460099FFF7D9FE074600BF81
:10906000384600B1D3E700BF00BFDEB1D4F820041A
:10907000816804F23120814200D001E004F21F3007
:1090800002902046FFF737F9ADF80C0003AA3046EE
:109090000299FFF7BCFE074600BF384600B1B6E7AD
:1090A00000BF00BF04F580609DE88E0010308EC0C8
:1090B0001038C4F82004002204F15400D4F820141D
:1090C00072DFA4E780F83010704770B504460D4693
:1090D00005B10CB90E2070BD05F1780002F095FDC8
:1090E00008B90720F7E70020A0702C2205F17801CD
:1090F000201DFEF767FA002084F83000D5F8A400A0
:109100006063D5F8A800A0634FF6FF70A4F82404AC
:1091100004F58260C4F82004002140F22C40C4F819
:109120002614A4F82A140155207810B9FF2084F8D9
:10913000540004F15500C4F810042046FFF7DBF892
:1091400040F21441085304F2144204F15501284638
:10915000FFF75DFE064600BF304600B1BBE700BF2B
:1091600004F231204FF4836108512046FFF7C3F821
:10917000A4F81C044FF48360015904F21C4205F169
:109180003C00FFF744FE064600BF304600B1A2E7B0
:1091900000BF012151200155208B81B2482001538D
:1091A000012084F83C0000212164502001556169B0
:1091B000616404F13C02002104F1540072DF0646B0
:1091C00000BF304600B186E700BF01202070304666
:1091D00081E770B504460D462E462088102804D03D
:1091E000112807D026280FD109E0214630460BF080
:1091F000F1FB0AE0214630460BF0E9FC05E0214690
:1092000030460CF0FBF800E000BF00BF70BD024626
:1092100092F82D0408B908207047002082F82D0428
:109220000B6840F22C40C2F826348B88A2F82A340E
:109230008B7983540020EFE770B5044694F854000E
:1092400074DF012084F82E04002084F8300400210B
:10925000502001550621204603F05BFF054600BF64
:10926000284600B170BD00BFA178204600F009F883
:10927000054625B1A06B10B12846A16B8847002098
:10928000F0E770B504460E46207808B9082070BD96
:10929000A670002140F22C40C4F82614A4F82A1429
:1092A0000155A07910B1A078012809D0E07910B15A
:1092B000A078012804D0E07970B1A07802280BD101
:1092C000606B30B1012084F82D040820616B884761
:1092D00002E0002084F82D0431462046FEF7D6FF38
:1092E000A070606BA0B1A078032802D0A0780428F9
:1092F0000ED1607960B194F82E0448B9002084F84A
:109300003004012084F82F040720616B884702E0B5
:10931000002084F82F04182104F13C00FEF76BF9BB
:10932000012084F83C0004F12C000DF049FF20B12D
:1093300094F82C105120015502E0012151200155D3
:1093400094F8240060B104F128000DF039FF20B139
:1093500094F828105220015502E0012152200155B5
:10936000002150200155A078052824D2DFE800F024
:109370001F030A11180004F13C01204611F0B1F856
:10938000054619E004F13C01204611F092F805462B
:1093900012E004F13C01204611F0B5F805460BE05F
:1093A00004F13C01204611F0DCF8054604E0002001
:1093B00084F8310000E000BF00BFA07898B104F14C
:1093C0003C0204F15400D4F8201472DF05460DB1BC
:1093D00028465CE794F8301094F8540073DF054693
:1093E0000DB1284653E7606B18B194F83100616BFA
:1093F000884700204BE730B50446039D94F82F04BE
:1094000008B9082030BD002084F82F0402B90DB13E
:10941000012000E0002084F830040020F2E7F7B5D6
:1094200092B00446174614B90E2015B0F0BD0026C0
:10943000207C9DF84C10884258D00020109011904C
:109440000120ADF840000020ADF8420013A81190B3
:10945000E18810AA4FF6FF70ACDF06461EB99DF8F2
:109460004C00207401E03046DFE7607C00283CD0EF
:1094700000200C900D900E900F90E088ADF8300019
:1094800001208DF83200BDF84200ADF8340010A87C
:109490000E9011980F904FF6FE7087421FD101A8D1
:1094A00000F0AEF8002516E002A931F8150000F032
:1094B00015F902280ED13EB902A830F815100CA8F3
:1094C000FFF75CFC064605E002A830F815100CA872
:1094D000FFF754FC6D1C0198A842E5D804E039461A
:1094E0000CA8FFF74BFC064600E0082630469CE738
:1094F000F8B504460D4604B10DB90E20F8BD286834
:10950000206028796074FF20207400BF01208DF84E
:10951000020041F60F00ADF8000000BF221D6946B1
:109520000120A8DF064600BF304600B1E6E700BFD5
:1095300029462046FFF7C8FB06463046DEE770B5F1
:1095400004460D4605B104B970BD2E46208850284A
:1095500004D1214630460BF0AFFF00E000BF00BF52
:1095600000BFF1E72DE9F041044600BF14B90E2019
:10957000BDE8F08100BF1C2221461C48FEF722F8FE
:109580001B481A490860206860B120687ADF0546E8
:109590000DB12846ECE7164821680A680260496860
:1095A000416005E012487BDF05460DB12846DFE744
:1095B000002617E006EB86000E4901EB800700BF8E
:1095C0004FF6FF70388000BF0B4800EB4610786004
:1095D0000A4A0021381DFFF7EBF805460DB10320BC
:1095E000C6E7761C002EE5D00020C1E7EC81002004
:1095F000C66E0020D8810020B88100209DBB0300EA
:1096000010B5044602484168204602F00AFB10BD2E
:109610000882002010B50446204600F0AFF808B1DB
:10962000204610BD1420FCE710B50446204600F08B
:10963000A5F820B12146034806F0F7FE10BD002032
:10964000FCE700001882002070B504460D4616465F
:10965000204613F027FC08B9002070BD034951F8DB
:1096600024003246294603F091FDF6E724820020CB
:1096700010B50446204600F081F820B12146034889
:1096800006F0D3FE10BD0020FCE700002082002081
:1096900010B50446204600F071F820B12146034879
:1096A00006F0C3FE10BD0020FCE700001C82002075
:1096B00070B504460025204600F060F850B1214600
:1096C000054806F0B2FE06460EB1022000E0012079
:1096D000054600BF284670BD1482002070B50446C0
:1096E0000025204600F04AF850B12146054806F012
:1096F0009CFE06460EB1022000E00120054600BF98
:10970000284670BD1082002010B51821044806F0CC
:109710005CFE0446182C00D110BDE0B2FCE700004E
:109720000882002070B505460C46204613F0BAFBAF
:1097300050B1284600F022F830B1044901EB840012
:10974000294606F072FE70BD0020FCE7248200204E
:1097500070B505460C461646204613F0A3FB50B1E3
:10976000284600F00BF830B1034901EB8400324683
:10977000294603F0A4FC70BD2482002010B50446E5
:10978000142C01DB002010BD2146024806F04DFEDE
:10979000F9E700000C8200202DE9FC4105460C464B
:1097A000174620880930B84202D90C20BDE8FC8158
:1097B00068466DDF064600BF304600B1F6E700BFE1
:1097C0000820218868542088401C20801B20218884
:1097D00068542088401C208020882844DDF801102F
:1097E0000160BDF8051081802088801D20809DF8D3
:1097F0000000400818B900202188685402E00120C8
:10980000218868542088401C20800020CEE700007A
:1098100010B5044600BF04A240F2C6212046FDF761
:109820006DFD00BF10BD00004472697665735C6217
:109830006C655F6465766963652E6300F0B5B1B0F1
:109840000546092D7ED2DFE805F06005C6101B3AFB
:10985000456394006249634A891AC908032242EAAF
:10986000014061A108F066FDB6E05D495D4A891AD4
:10987000C908032242EA014061A108F05BFDABE0A8
:109880005749584A891AC908032242EA014061A18E
:1098900008F050FD00206449486200226348FFF749
:1098A000AEFB044600BF26463EB100BF60A240F2B8
:1098B0007B213046FDF722FD00BF00BF8CE0484908
:1098C000484A891AC908032242EA01405DA108F00A
:1098D00031FD81E04249434A891AC908032242EA1C
:1098E000014061A108F026FD5048FFF7A5FC0446A1
:1098F00000BF26463EB100BF4DA240F28621304651
:10990000FDF7FCFC00BF00BF66E000F0F5FB63E084
:1099100008200290019001AB03AA02A923A80EF02F
:1099200033FF044600BF26463EB100BF40A240F2CE
:1099300097213046FDF7E2FC00BF00BF022001F096
:10994000F5F800E047E0019803AB009023A9374801
:10995000029AFFF750FD044600BF26463EB100BF05
:1099600033A240F29E213046FDF7C8FC00BF00BF85
:1099700032E0464800884FF6FF7188422AD01DA980
:10998000424800880EF07CFB0446052C22D000BF24
:1099900027463FB100BF26A24FF42B713846FDF792
:1099A000ADFC00BF00BF062001F0C0F80DF1850638
:1099B00031461E48FFF72BFC044600BF27463FB147
:1099C00000BF1BA240F2B2213846FDF797FC00BF52
:1099D00000BF00BF00E000BF00BF31B0F0BD00001D
:1099E000C8FF030008FF030044697265637465647F
:1099F000206164766572746973696E672E00000079
:109A000046617374206164766572746973696E6708
:109A10002E000000536C6F77206164766572746964
:109A200073696E672E00000068800020347C00207F
:109A30004472697665735C626C655F6465766963C0
:109A4000652E630046617374206164766572746983
:109A500073696E6720776974682077686974656CCC
:109A60006973742E00000000536C6F772061647678
:109A70006572746973696E672077697468207768A6
:109A80006974656C6973742E00000000966C002088
:109A900070B5ACB0AC2101A8FDF7ADFD05260220E4
:109AA0008DF8040001208DF806008DF80760ADF8F0
:109AB00014001F4906911F480A903C2201A91E4824
:109AC000FDF780FD01218DF87D108DF87E100021BD
:109AD0008DF87F102191229101218DF8801028218D
:109AE000239140F6B831249101218DF88110A021F5
:109AF000259144F25061269110482A9010482B90ED
:109B000001A91048FFF7E1FA044600BF25463DB120
:109B100000BF0DA240F25D212846FDF7EFFB00BF1C
:109B200000BF01210748FFF7CDFA2CB070BD00003F
:109B3000926C00209C6C0020688000203D98020000
:109B400011980200347C00204472697665735C626F
:109B50006C655F6465766963652E630070B5054664
:109B60000E46012D02D100F06FF923E0012001F033
:109B7000E5F83EB100F05EFB03210F48FFF781FBE3
:109B8000044604E003210C48FFF77BFB04468CB13C
:109B90000A490B4A891AC908012242EA01402246B1
:109BA00008A108F0D1FB00BF00BF08F035FA00287B
:109BB000FBD100BF70BD0000347C0020C8FF030053
:109BC00008FF03004164766572746973696E6720EB
:109BD0006661696C656420746F2073746172742EA1
:109BE000204572726F723A20307825303858000064
:109BF00070B51049104810F080FAC5B24FF6FE72E9
:109C000029460E48FFF70BFC044694B1112C10D0E6
:109C1000132C0ED00F2C0CD0082C0AD043F201408C
:109C2000844206D000BF06A2F5212046FDF766FB60
:109C300000BF70BDBC770020886C0020CC7700206E
:109C40004472697665735C626C655F6465766963AE
:109C5000652E630010B551200549086064204860F6
:109C6000012088600873034810F03BFA10BD000023
:109C7000BC770020886C00207FB500200090019008
:109C800002900390009001208DF8040000200290C3
:109C900064208DF80C0002208DF80D008DF80E0068
:109CA0008DF80F0069460848FFF722FC044600BF04
:109CB00025463DB100BF05A240F20F112846FDF731
:109CC0001DFB00BF00BF7FBDCC77002044726976CA
:109CD00065735C626C655F6465766963652E6300BD
:109CE00070B5094A01210948FEF762FD044600BF2C
:109CF000254635B100BF06A2D0212846FDF7FEFA61
:109D000000BF00BF70BD0000259D02004CD90300BC
:109D10004472697665735C626C655F6465766963DD
:109D2000652E630010B50446FFF762FF10BD00000A
:109D300038B508F0FDFE044600BF25463DB100BF22
:109D400015A240F281112846FDF7D8FA00BF00BFE6
:109D5000002000906946012008F0FCFD044600BF89
:109D600025463DB100BF0CA24FF4C3712846FDF754
:109D7000C5FA00BF00BF684608F03CFE044600BFBD
:109D800025463DB100BF04A24FF4C5712846FDF73A
:109D9000B5FA00BF00BF38BD4472697665735C6276
:109DA0006C655F6465766963652E630010B5044673
:109DB00000BF04A240F229212046FDF79FFA00BF10
:109DC00010BD00004472697665735C626C655F6407
:109DD00065766963652E630030B587B01C216846DF
:109DE000FDF709FC002000904FF4A03001904FF4E3
:109DF000F020029003208DF80C000020ADF80E003A
:109E00008DF8100005900A4806906846FFF7AAFBF7
:109E1000044600BF25463DB100BF06A240F21E2108
:109E20002846FDF76BFA00BF00BF07B030BD000049
:109E3000AD9D02004472697665735C626C655F6417
:109E400065766963652E630070B52549254A891AD0
:109E5000C908032242EA014023A108F06BFA00BFBF
:109E600000BF08F0D9F80028FBD100BF00F090F83F
:109E70000EF022FB044654B919491A4A891AC90836
:109E8000032242EA01401EA108F054FA0AE01449F4
:109E9000144A891AC908012242EA0140224624A133
:109EA00008F052FA00BF25463DB100BF2BA240F298
:109EB000C7312846FDF722FA00BF00BF0849094A0A
:109EC000891AC908032242EA014029A108F032FA9E
:109ED00000BF00BF08F0A0F80028FBD100BF70BD94
:109EE000C8FF030008FF0300457261736520626FBD
:109EF0006E647320696E697469617465642E000014
:109F000050656572204D616E616765723A20416CE3
:109F10006C20626F6E64732064656C657465642088
:109F20007375636365737366756C6C792E000000DE
:109F30004661696C656420746F2065726173652089
:109F4000626F6E64732E204572726F7220636F644D
:109F5000653A203078253038580000004472697620
:109F600065735C626C655F6465766963652E63002A
:109F7000457261736520626F6E64732070726F63E7
:109F800065737320636F6D706C657465642E00007B
:109F900070B500F0A3F94FF6FF71884239D022491D
:109FA000224A891AC908032242EA014020490A8844
:109FB00020A108F0C9F913211D48008876DF044666
:109FC0007CB91949194A891AC908032242EA014091
:109FD00024A108F0AFF92E480078401E2C490870E3
:109FE0000AE01149114A891AC908012242EA0140CE
:109FF000224628A108F0A8F900BF25463DB100BFC0
:10A000002FA240F25B112846FDF778F900BF00BF90
:10A0100009E00549054A891AC908022242EA0140B5
:10A020002CA108F087F970BDC8FF030008FF0300EA
:10A03000906C0020417474656D7074696E67207453
:10A040006F20646973636F6E6E6563742C20636F39
:10A050006E6E5F68616E646C653A203078253034CE
:10A0600058000000446973636F6E6E656374696FB6
:10A070006E20726571756573742073656E742073DC
:10A0800075636365737366756C6C792E00000000F0
:10A09000616C00204661696C656420746F2064699E
:10A0A00073636F6E6E6563742E204572726F7220DB
:10A0B000636F64653A20307825303858000000001E
:10A0C0004472697665735C626C655F64657669632A
:10A0D000652E63004E6F2061637469766520636F3F
:10A0E0006E6E656374696F6E20746F20646973634C
:10A0F0006F6E6E6563742E0070B533DF044600BF6B
:10A1000025463DB100BF04A24FF4B8712846FDF7C3
:10A11000F5F800BF00BF70BD4472697665735C627C
:10A120006C655F6465766963652E63003EB500BF4C
:10A130009DF8000020F00F00401C00909DF80000EA
:10A1400020F0F0001030009000BF13221FA16846DD
:10A150007CDF044600BF25463DB100BF20A24FF47E
:10A16000F6712846FDF7CAF800BF00BF40F2C230C2
:10A1700078DF044600BF25463DB100BF18A240F27B
:10A18000EF112846FDF7BAF800BF00BF002001908C
:10A1900002900620ADF804000C20ADF80600142053
:10A1A000ADF808004FF49670ADF80A0001A87ADF08
:10A1B000044600BF25463DB100BF09A240F2F91197
:10A1C0002846FDF79BF800BF00BF3EBD4149414C0A
:10A1D00052415F47414D494E475F4D4F55534500F2
:10A1E0004472697665735C626C655F646576696309
:10A1F000652E630070B50021084806F019FA044680
:10A2000000BF25463DB100BF05A24FF401712846AD
:10A21000FDF774F800BF00BF70BD0000E0770020BC
:10A220004472697665735C626C655F6465766963C8
:10A23000652E630030B589B09DF81C0020F0FE004B
:10A24000801C8DF81C00062105A831DF9DF819003F
:10A2500040F0C0008DF819000598CDF81D00BDF83C
:10A260001800ADF8210007A86CDF044600BF2546A2
:10A270003DB100BF11A240F2DE312846FDF73EF8A5
:10A2800000BF00BF9DF81D009DF81E109DF81F2007
:10A2900007AB1B79CDE90032CDE9021007A94B7954
:10A2A0008A790B490B4D491BC908032545EA014032
:10A2B000094908F0ABF809B030BD00004472697676
:10A2C00065735C626C655F6465766963652E6300C7
:10A2D000C8FF030008FF030098E00300014800885E
:10A2E00070470000906C002000487047B06C002060
:10A2F00010B5044600BF04A240F2EB412046FCF733
:10A30000FDFF00BF10BD00004472697665735C629A
:10A310006C655F6465766963652E63000A78022A5E
:10A320000CD0052A02D0062A09D103E00122054BF0
:10A330001A7005E00022034B1A7001E000E000BF34
:10A3400000BF7047606C0020F0B593B018213C4806
:10A35000FDF751F93A4C062020800120A070012120
:10A36000E1700221A1716171022020710834042082
:10A3700020800220A0700121E1700221A171617191
:10A3800020710834012020800320A0700121E17099
:10A390000221A1716171022020710327482101A8C7
:10A3A000FDF729F9274801902748029000208DF8F1
:10A3B0000C0001208DF80D0003208DF80E002048C0
:10A3C000049000208DF8140006908DF81C00089071
:10A3D0008D21ADF828101D48099040F20110ADF80C
:10A3E000340000218DF836108DF8377000208DF87C
:10A3F0003A000F9002218DF830108DF838108DF84A
:10A4000045108DF8441002208DF843008DF840006F
:10A410008DF841008DF8420001A90D4800F005FFBC
:10A42000054600BF2E463EB100BF0AA240F2C2411F
:10A430003046FCF763FF00BF00BF13B0F0BD000063
:10A44000C48000201DA30200F1A20200386E00208B
:10A45000B06C00204472697665735C626C655F6401
:10A4600065766963652E630010B5FEF731F910BD9E
:10A4700030B593B002208DF8040041F61510ADF808
:10A4800006004EF6EE60ADF808000120ADF80A00B7
:10A49000402103A8FDF7AFF80DA103A801F00BF8C8
:10A4A00001A8119002208DF8480003A800F0CEFC0E
:10A4B000044600BF25463DB100BF07A240F21D4142
:10A4C0002846FCF71BFF00BF00BF13B030BD0000E3
:10A4D0004149414C524100004472697665735C62A7
:10A4E0006C655F6465766963652E630010B50D2049
:10A4F00007F032FC0E2007F02FFCFFF7F1FBFFF70F
:10A50000A9FB00F099FAFFF713FCFFF70FFEFFF726
:10A5100071FEFFF761FCFFF7BBFA00F005FA00F0EF
:10A52000BDFAFFF7A5FFFFF7A7FBFFF70DFF00F050
:10A53000DBFA0949094A891AC908032242EA01409B
:10A5400007A107F0F7FE00BF00BF07F065FD002878
:10A55000FBD100BF10BD0000C8FF030008FF0300CF
:10A56000424C4520496E697469616C697A65640082
:10A57000F8B505460F46288821286DD004DC102840
:10A5800007D011287BD140E03B287AD05628F9D15A
:10A5900099E05F480078401C5D4908705D495E4A5B
:10A5A000891AC908032242EA014059490A785BA185
:10A5B00007F0CAFE00BF00BF07F02EFD0028FBD148
:10A5C00000BF0D200090684607F02AFB06460121D7
:10A5D000009A01FA02F0C6F80C0500BF00BFA88877
:10A5E0005849088008460188574806F0BFF80446D5
:10A5F00000BF26463EB100BF54A240F2A71130462C
:10A60000FCF77CFE00BF00BF80E0414800780028D6
:10A6100004DD3F480078401E3D4908703D493E4AF0
:10A62000891AC908032242EA014039490A784CA133
:10A6300007F08AFE00BF00BF07F0EEFC0028FBD148
:10A6400000BF0D2007F088FB0E2007F085FB4FF6BA
:10A65000FF703C49088059E000200090A8886946B6
:10A660008FDF044600BF26463EB100BF37A240F24E
:10A67000C1113046FCF742FE00BF00BF46E044E097
:10A68000FFE72449244A891AC908032242EA014003
:10A690003EA107F04FFE00BF00BF07F0BDFC002841
:10A6A000FBD100BFA888132176DF044600BF2646F1
:10A6B0003EB100BF25A24FF4E5713046FCF71EFE07
:10A6C00000BF00BF22E01349134A891AC9080322B8
:10A6D00042EA014033A107F02DFE00BF00BF07F0A2
:10A6E0009BFC0028FBD100BFA888132176DF04461D
:10A6F00000BF26463EB100BF14A240F2D31130463F
:10A70000FCF7FCFD00BF00BF00E000BF00BFF8BDCC
:10A71000616C0020C8FF030008FF030044657669F0
:10A72000636520636F6E6E65637465642E20546F7D
:10A7300074616C20636F6E6E656374696F6E733ADB
:10A7400020256400906C0020F47700204472697624
:10A7500065735C626C655F6465766963652E630032
:10A7600044657669636520646973636F6E6E6563C3
:10A770007465642E20546F74616C20636F6E6E6517
:10A780006374696F6E733A20256400004741545426
:10A7900020436C69656E742054696D656F75742E05
:10A7A00000000000474154542053657276657220C2
:10A7B00054696D656F75742E0000000010B5044675
:10A7C00020460DF03FF820460CF044FE20460CF0E9
:10A7D0007FFE2078032806D0042839D009281BD012
:10A7E0000D285ED103E0A0882F4908805AE02F4948
:10A7F0002F4A891AC908032242EA01402DA107F015
:10A8000099FD00BF00BF07F007FC0028FBD100BF87
:10A810000121FFF7A3F945E0207C00F00100B0B171
:10A82000207A072813D12149214A891AC90803220D
:10A8300042EA014024A107F07DFD00BF00BF07F000
:10A84000EBFB0028FBD100BF012000F077FA29E0E4
:10A8500062891649164BC91AC908022343EA014006
:10A8600026A107F071FD00BF00BF07F0D5FB00284F
:10A87000FBD100BF608941F20601884210D10B492B
:10A880000B4A891AC908032242EA0140254907F008
:10A8900051FD00BF00BF07F0BFFB0028FBD100BF88
:10A8A00000E000BF00BF10BD966C0020C8FF030091
:10A8B00008FF0300526573746172742041647674FA
:10A8C000657273696E6700004E657720426F6E6433
:10A8D0002C20616464207468652070656572207442
:10A8E0006F207468652077686974656C697374207B
:10A8F000696620706F737369626C6500436F6E6E7A
:10A90000656374696F6E207365637572697479200D
:10A910006661696C65642C20726561736F6E3A20A4
:10A9200025640000DCE003007CB50DF0AFF90446BF
:10A9300000BF25463DB100BF39A240F26131284633
:10A94000FCF7DCFC00BF00BF0020009001909DF8E8
:10A95000000020F00100401C8DF800009DF8000070
:10A9600020F002008DF800009DF8000020F00400A7
:10A970008DF800009DF8000020F008008DF8000020
:10A980009DF8000020F0700030308DF800009DF838
:10A99000000020F080008DF8000007208DF80100F5
:10A9A00010208DF802009DF8030020F00100401CEB
:10A9B0008DF803009DF8030020F00200801C8DF844
:10A9C00003009DF8040020F00100401C8DF80400F5
:10A9D0009DF8040020F00200801C8DF804006846F9
:10A9E0000DF0B4FE044600BF25463DB100BF0CA2E9
:10A9F00040F275312846FCF781FC00BF00BF0D48CE
:10AA00000DF084FE044600BF25463DB100BF04A200
:10AA10004FF45E712846FCF771FC00BF00BF7CBD9F
:10AA20004472697665735C626C655F6465766963C0
:10AA3000652E6300BDA7020070B507F0F5FE044661
:10AA400000BF25463DB100BF04A240F23B1128469D
:10AA5000FCF754FC00BF00BF70BD00004472697673
:10AA600065735C626C655F6465766963652E63001F
:10AA700010B5044600BF04A24FF480612046FCF7E5
:10AA80003DFC00BF10BD00004472697665735C62D6
:10AA90006C655F6465766963652E630038B5002078
:10AAA00000900A4800906946094805F06FFE044688
:10AAB00000BF25463DB100BF06A240F2F531284651
:10AAC000FCF71CFC00BF00BF38BD000071AA0200EB
:10AAD000F47700204472697665735C626C655F642C
:10AAE00065766963652E630070B500BF094A0A2167
:10AAF0000820FDF727FE044600BF25463DB100BFF4
:10AB000005A24FF49F612846FCF7F8FB00BF00BF89
:10AB100000BF70BDDC8000204472697665735C62A2
:10AB20006C655F6465766963652E630070B586B099
:10AB300006460820019033464FF6FF7201A902A88D
:10AB40000DF0E0FA044600BF25463DB100BF31A23A
:10AB500040F20D312846FCF7D1FB00BF00BF32495F
:10AB6000324A891AC908032242EA014030A1019AF7
:10AB700007F0EAFB00250EE002A931F815302A495A
:10AB80002A4A891AC908032242EA01402A462FA10B
:10AB900007F0E6FB6D1C01988542EDD3019858B98A
:10ABA0002149224A891AC908022242EA01402EA1FB
:10ABB00007F0C0FB06B070BD019808280CD91A49EF
:10ABC0001A4A891AC908022242EA0140082234A11D
:10ABD00007F0BAFB0820019002A801990CF01CFCB8
:10ABE00004465CB11049114A891AC908012242EA97
:10ABF0000140224639A107F0A7FB09E00A490B4AA8
:10AC0000891AC908032242EA014041A107F092FBD8
:10AC100000BFCFE74472697665735C626C655F6400
:10AC200065766963652E6300C8FF030008FF0300B3
:10AC3000546F74616C20646576696365206964652E
:10AC40006E7469746965733A202564004465766999
:10AC50006365204964656E74697479205B25645D61
:10AC60003A2049443D2564004E6F2070656572733B
:10AC700020617661696C61626C6520746F20736518
:10AC80007420696E20646576696365206964656E09
:10AC9000746974696573206C6973742E0000000018
:10ACA0005065657220494420636F756E7420657825
:10ACB000636565647320746865206D6178696D757E
:10ACC0006D20616C6C6F7765642E204C696D6974C2
:10ACD000696E6720746F2025642E00004661696CE0
:10ACE000656420746F20736574206465766963659C
:10ACF000206964656E746974696573206C69737426
:10AD00002E204572726F723A203078253038580004
:10AD1000446576696365206964656E746974696504
:10AD200073206C69737420737563636573736675E0
:10AD30006C6C79207365742E0000000070B586B0CD
:10AD400006460820019033464FF6FF7201A902A87B
:10AD50000DF0D8F9044600BF25463DB100BF26A23C
:10AD600040F241312846FCF7C9FA00BF00BF27492D
:10AD7000274A891AC908032242EA014025A1019AFB
:10AD800007F0E2FA00250EE002A931F815301F495C
:10AD90001F4A891AC908032242EA01402A4621A112
:10ADA00007F0DEFA6D1C01988542EDD31749184A69
:10ADB000891AC908032242EA014008221DA107F0AE
:10ADC000C3FA00BF00BF07F027F90028FBD100BF7E
:10ADD00002A801990DF0F8FC044600BF25463DB1DC
:10ADE00000BF05A24FF454712846FCF787FA00BF54
:10ADF00000BF06B070BD00004472697665735C6286
:10AE00006C655F6465766963652E6300C8FF030047
:10AE100008FF0300546F74616C2070656572733AAB
:10AE200020256400506565722049445B25645D3AC5
:10AE3000202564004D61782057686974656C6973DA
:10AE4000742050656572733A202564007FB504460E
:10AE500000BF01208DF80E0041F60A00ADF80C008D
:10AE600000BF564A03A90120A8DF054615B12846B0
:10AE700004B070BD208800280DDD5148009094F882
:10AE80003C30228842F62920616800F009FD054621
:10AE90000DB12846ECE7208900280DDD49480090D7
:10AEA00094F83C30228942F62420E16800F0F8FC56
:10AEB00005460DB12846DBE7208A00280DDD424813
:10AEC000009094F83C30228A42F62520616900F017
:10AED000E7FC05460DB12846CAE7208B00280DDDAA
:10AEE0003A48009094F83C30228B42F62720E169E2
:10AEF00000F0D6FC05460DB12846B9E7208C0028A5
:10AF00000DDD3348009094F83C30228C42F6262028
:10AF1000616A00F0C5FC05460DB12846A8E7208D02
:10AF200000280DDD2B48009094F83C30228D42F62D
:10AF30002820E16A00F0B4FC05460DB1284697E7E9
:10AF4000206B90B101A8216B10F08AF82248009084
:10AF500094F83C30082201A942F6232000F0A0FC1E
:10AF600005460DB1284683E700BF606B70B11B48F2
:10AF7000009094F83C30606B0279016842F62A2018
:10AF800000F08EFC05460DB1284671E7A06B90B12C
:10AF900001A8A16B0DF02AFC1148009094F83C30F8
:10AFA000072201A942F6502000F07AFC05460DB1B7
:10AFB00028465DE700BF00205AE70000EC6F002044
:10AFC000EE6F0020F66F0020FE6F0020067000205C
:10AFD0000E700020167000201E70002026700020C9
:10AFE0002E70002070B505460E462888102802D025
:10AFF00011282CD115E01748006860B900F010FF47
:10B00000044600BF34B11448006818B12046124904
:10B010000968884700BF0F480068401C0D49086058
:10B0200016E00C480068401E0A490860084600689F
:10B0300060B9FDF769F9044600BF34B106480068FD
:10B0400018B1204604490968884700BF00E000BFE6
:10B0500000BF70BDE46B0020E06B002070B50446BB
:10B060000D462088102806D0112808D012280ED0AE
:10B07000502810D107E0204609F036FC0CE02046AD
:10B0800009F08CFD08E020460AF0EAF904E02046C9
:10B0900009F012FC00E000BF00BF70BD2DE9F041D7
:10B0A00004460F46A6882088102806D0112819D0FB
:10B0B00019283FD01A284AD118E00EF085F83046FA
:10B0C0000DF006FF30B900BF22A2F0210420FCF7EA
:10B0D00015F906E0E07B022803D131462C4805F043
:10B0E000B3F934E030460EF093F830E0207A0509E9
:10B0F000042D01DB012000E00020024631462448F7
:10B100000C3001F0DCFF032D01DB012000E000200A
:10B11000024631461E48083001F0D1FF022D01DB06
:10B12000012000E00020024631461948001D01F0D0
:10B13000C6FF0CE0207A48B9607AC0F3C0052A4601
:10B14000314613480C3001F0BAFF00BF00BF00BF0A
:10B15000BDE8F0812E2E5C2E2E5C2E2E5C2E2E5CF9
:10B160002E2E5C2E2E5C636F6D706F6E656E747329
:10B170005C626C655C636F6D6D6F6E5C626C655F6D
:10B18000636F6E6E5F73746174652E630000000000
:10B190001482002070B504460D4600BF0A480078AE
:10B1A00000B970BD00BF204603F0F6FB00B1F8E720
:10B1B000204602F037FE20460FF060FA204602F0EB
:10B1C00093F900BFEDE70000046F00200146132053
:10B1D000D1F87C2152B1002205E0D1F87C3133F85E
:10B1E00032301844521C8B7C9342F6D8D1F880211F
:10B1F0005AB1002205E0D1F8803133F832301844DA
:10B20000521C91F878309342F5D8D1F884215AB184
:10B21000002205E0D1F8843133F832301844521C52
:10B2200091F8DE309342F5D870477CB506460C465F
:10B2300000BF0EB90E207CBD00BF00BF0CB90E20B0
:10B24000F9E700BFA07A0A2805DC207C0A2802DC86
:10B25000207E0A2801DD0720EDE720683060606865
:10B260007060A07AB074207C86F87800207E86F822
:10B27000DE0000BF01208DF8060041F61200ADF897
:10B28000040000BF06F1080201A90120A8DF05465D
:10B290000DB12846CFE72146304603F01DF805469C
:10B2A0000DB12846C7E7207A08B9607A50B194F802
:10B2B0003D2094F83C1030460DF014FC05460DB1CD
:10B2C0002846B8E72146304603F042F905460DB15D
:10B2D0002846B0E7214630460AF0CBF905460DB1C5
:10B2E0002846A8E72146304601F050FE05460DB13C
:10B2F0002846A0E7214630460EF05AF805460DB123
:10B30000284698E7207AB0B106F5A77004F1420309
:10B31000082242F622210090304600F01DF9054631
:10B320000DB1284687E72146304600F053F905461F
:10B330000DB128467FE7607A70B106F5AF7004F171
:10B340003F03082242F633210090304600F004F912
:10B3500005460DB128466EE72146304602F0F5FC61
:10B3600005460DB1284666E794F83E10304602F0D7
:10B37000C5FC05460DB128465DE7E068C6F87C01CE
:10B380006069C6F88001E069C6F88401284652E782
:10B390002DE9F04F87B004460E4617469846DDF873
:10B3A000409000BF1CB90E2007B0BDE8F08F00BF71
:10B3B00000BFB8F1000F01D10E20F5E700BFA07C5F
:10B3C000B04257DD06EB860104F1140000EB410B9F
:10B3D0004FF6FF7081454BD04FF0000A029701AA4B
:10B3E0004946D4F87801FDF7DCFC054600BF284645
:10B3F00000B1D9E700BF0198133001900AE0D4F8FA
:10B400007C0130F83A000199084401900AF10100EA
:10B4100000F0FF0AB245F2DBD4F87C0130F83600C8
:10B42000B84205DB3A4641460198FCF7CBF801E00B
:10B430000C20B9E700200390049005900690BBF81B
:10B440000000ADF80C0001208DF80E000020ADF8D2
:10B45000100002A80590CDF8188003A94846AEDF79
:10B46000054625B905980088B84200D00C2500E0B3
:10B47000082500E00725284696E770B504460D46E6
:10B480002E462088102804D0502807D051280FD1EC
:10B4900009E02146304609F05FFA0AE021463046CD
:10B4A0000AF031F805E02146304609F028FF00E0B7
:10B4B00000BF00BF70BD70B504460D462846FCF7BE
:10B4C000A5F82080656070BD70B50446204610F078
:10B4D000D7F9054605F0010070BD00002DE9F041E7
:10B4E00005460E46002432782146641C6A54727860
:10B4F0002146641C6A5400BF022C01D1012000E0E7
:10B500000020074637B900BF04A247210020FBF7FF
:10B51000F5FE00BF00BF2046BDE8F0812E2E5C2E58
:10B520002E5C2E2E5C2E2E5C2E2E5C2E2E5C636FDF
:10B530006D706F6E656E74735C626C655C636F6D6D
:10B540006D6F6E5C626C655F7372765F636F6D6D5D
:10B550006F6E2E63000000002DE9F04188B00546B3
:10B560000E4617461C46DDF8388020216846FCF759
:10B5700042F8ADF80060ADF804709DF80D0020F0C1
:10B580000200801C8DF80D00607808B1012000E0F9
:10B5900000209DF80D1060F3C3018DF80D109DF88B
:10B5A0000D0020F0100010308DF80D0020788DF87F
:10B5B000110060788DF81200A0788DF8130001203A
:10B5C0008DF80F0028894246694600F0D5F908B089
:10B5D000BDE8F08130B589B004460D46202101A8B0
:10B5E000FCF709F842F63220ADF804000120ADF86E
:10B5F00008009DF8110020F00200801C8DF8110059
:10B600009DF8110020F0080008308DF811009DF819
:10B61000110020F00400001D8DF8110095F8450080
:10B620008DF815004620405D8DF8160001208DF83C
:10B630001300208904F5AB7201A900F09DF909B04F
:10B6400030BD000030B503460020042B23D2012A70
:10B6500007D1012903D103F10E04E4B200E0002474
:10B66000224679B1012902D0022911D104E003EB6D
:10B6700043040A4D2A550DE003EB4304074D2C44C7
:10B68000627007E003EB4304044D2C44A27001E018
:10B69000072000BF00E0072030BD000088720020B6
:10B6A0002DE9FC4704460D461646A71C4FF001083D
:10B6B0000020019001A8FDF717F930484068286084
:10B6C0002E4840682D498968411A2D480068401C61
:10B6D000A0EB010915E001212A4804F0D9FE03F08E
:10B6E000F9FB82465146274804F0D2FE23484068C1
:10B6F00022498968411A22480068401CA0EB0109D0
:10B7000000BF4F45E7D8B8F1000F30D000210091BD
:10B7100076B1009921F00301491C0091009921F0B4
:10B720000401091D0091009964F3891100910DE055
:10B73000009921F00301891C0091009921F0040176
:10B74000091D0091009964F39F5100910B494968CC
:10B750000B4A12681140094A0C3202EB8100009931
:10B7600001600649496839440C3A516000BF9DF8B0
:10B770000400FDF7BFF84046BDE8FC87E08D0020DF
:10B78000A4710020FC91002070B504460D460A2DDE
:10B7900003D10D212046FFF7F7FFA168481CA060E8
:10B7A00020684554D4E90110884202D3204605F0B0
:10B7B00032FD70BD0448806803494968884201D160
:10B7C000012070470020FCE7E08D002001460A6858
:10B7D00092FAA2F000BA70477CB50446204602F007
:10B7E000E3FC054600236A4609210BF07DFA052893
:10B7F00005D10122024801782046FDF7A9FF7CBD52
:10B80000E06E00207CB504460E460020019042F612
:10B81000A620ADF8040001208DF806000748006856
:10B8200000906A4601A92046A0DF05462DB90122F5
:10B83000034801782046FDF78BFF7CBDACD903009F
:10B84000E16E002001468879012809D10879012894
:10B8500006D1488842F60212904201D10120704779
:10B860000020FCE74FF0FF31054A42F8201008287D
:10B8700004DBFF23A0F1080160325354704700003D
:10B880007C8500200146024850F8210070470000E6
:10B890007C8500200146014840567047AC85002059
:10B8A0002DE9F04389B006460D4614461F46DDF8E3
:10B8B000408000BF0DB1012000E000208146B9F1B9
:10B8C000000F06D100BF1BA284210020FBF716FD4C
:10B8D00000BF00BF00BF002C01DD012000E0002000
:10B8E0008146B9F1000F06D100BF12A285210020C8
:10B8F000FBF704FD00BF00BF202101A8FBF77BFE82
:10B90000ADF80460ADF80840ADF80A4003959DF825
:10B91000110020F00200801C8DF811008DF81570C8
:10B92000424601A91348008800F026F809B0BDE896
:10B93000F08300002E2E5C2E2E5C2E2E5C2E2E5CB4
:10B940002E2E5C2E2E5C636F6D706F6E656E747341
:10B950005C626C655C626C655F7365727669636579
:10B96000735C626C655F6469735C626C655F64697B
:10B97000732E6300EC6F002070B590B006460C4645
:10B980001546A07818B901208DF80E0002E0A078C5
:10B990008DF80E002088ADF80C0000200290607C2D
:10B9A00002A90EF00CFEA07C0DF109010EF007FEBD
:10B9B000E07B08B1012000E000209DF80A1060F350
:10B9C000C3018DF80A10207C08B1012000E000209E
:10B9D0009DF80A1060F304118DF80A10207B08B15D
:10B9E000012000E000209DF80A1060F300018DF8AE
:10B9F0000A10207D08B1022000E001209DF80A1005
:10BA000060F342018DF80A101C2109A8FBF7F3FD31
:10BA1000607BC0F3001018B9607BC0F34010F8B130
:10BA200000200090E07C0DF101010EF0C8FD00BF88
:10BA30009DF8000020F00F00401C8DF800009DF8DC
:10BA4000000020F0F00010308DF8000000BF9DF8DD
:10BA5000020020F00600801C8DF80200CDF838D0DE
:10BA6000607B8DF82400A07B8DF82500142104A8AC
:10BA7000FBF7C1FD03A8049002A80590A088ADF8CB
:10BA80001C00A06820B1E088ADF81800A0680890FC
:10BA9000A069002849D000200190A0690088ADF875
:10BAA0002C00A0694088ADF82E00A06940680A907B
:10BAB00001A80D90A169087B01A90EF080FDA16984
:10BAC000487B0DF105010EF07AFDA069807A08B17E
:10BAD000012000E000209DF8061060F3C3018DF8FE
:10BAE0000610A069C07A08B1012000E000209DF88E
:10BAF000061060F304118DF80610A069007A08B1F1
:10BB0000012000E000209DF8061060F300018DF890
:10BB10000610A069807B08B1022000E001209DF89A
:10BB2000061060F342018DF80610E06908B1E06983
:10BB30000C902B4604AA09A93046AADF10B070BDAC
:10BB40002DE9F04104460D464FF6FF76304684421B
:10BB50000AD14FF48071284604F037FC86B2B6F55E
:10BB6000807F10D126460EE0FF2C0CDC21462846B3
:10BB700004F014FC80F001070FB1204601E04FF6FD
:10BB8000FF70064600BF3046BDE8F08170B505463F
:10BB90000DB9094C01E0084C083409E0204602F0D8
:10BBA0007AFF064606B904E028467168884700BF58
:10BBB000F4E700BF70BD00007085002010B504469A
:10BBC0002CB90120064948700020FFF7DFFF012C47
:10BBD00004D1012002498870FFF7D8FF10BD000092
:10BBE000688500202DE9F047024613468C46D3E9CC
:10BBF0000245DCE90267B6EB040877EB050002D3E7
:10BC00000120BDE8F0870020FBE701468878012885
:10BC100005D191F82000012801D1002070470120B2
:10BC2000FCE733B58BB00546002000900C9878B146
:10BC300000240BE021460CA804F0F7FB28B1009A81
:10BC4000501C009001A820F81240641C142CF1D361
:10BC50002C2269462846FBF7B5FC0DB030BD0146E5
:10BC60000888062808DB0888B0F5486F06DD0888D4
:10BC70004FF6FF72904201D007207047488806288F
:10BC800008DB4888B0F5486F06DD48884FF6FF723C
:10BC9000904201D00720F0E708884FF6FF729042EB
:10BCA00008D04888904205D008884A88904201DD33
:10BCB0000720E2E70020E0E72DE9F04107460D46C6
:10BCC000144698462088801D404502D90C20BDE8C6
:10BCD000F0813846FFF7C3FF064600BF304600B18B
:10BCE000F5E700BF0520218868542088401C20808B
:10BCF0001220218868542088401C208022885119F5
:10BD000038880FF0C3FD218808442080228851190B
:10BD100078880FF0BBFD2188084420800020D6E7FA
:10BD2000F8B505460C46607A88B9207A10B91048F3
:10BD3000476801E00E4887682A4639466068FCF784
:10BD400081FD064616B130460EF01CF90EE00020CB
:10BD500020720748406948B101208DF80000ADF815
:10BD60000250034841696846884700BFF8BD00009B
:10BD7000EC810020F0B585B004460D4617461E46FE
:10BD800014220B496846FBF71DFCADF802408DF804
:10BD90000850ADF80A708DF80C6000220548017853
:10BDA0002046FDF7D5FC684600F084FF05B0F0BDE5
:10BDB000C4DA0300CD6F002010B586B00446208899
:10BDC00009F01EFD00BB2088FDF72EFC30B920884D
:10BDD000012241F2060100F045FB15E02088002217
:10BDE0000A490978FDF7B4FC03208DF80400208887
:10BDF000ADF8060000208DF80C0000218DF80D1024
:10BE000001A800F057FF00BF06B010BDCD6F0020A5
:10BE100070B504460D4629462046FCF707F970BD6B
:10BE200010B5012200210846FFF70CFC044600BFB4
:10BE30001CB1072C01D0204610BD00BF07220221F3
:10BE40000120FFF7FFFB044600BF1CB1072C01D007
:10BE50002046F1E700BF042202210020FFF7F2FB99
:10BE6000044600BF1CB1072C01D02046E4E700BF08
:10BE70000020E1E72DE9FF4105460C460020029035
:10BE80000390ADF80840ADF80A40009001906A4672
:10BE900002A9284690DF0646002E32D0304606F032
:10BEA000ADFF074619491A4A891AC908012242EA10
:10BEB00001403B462A46174906F052FABDF80000F9
:10BEC00010B9BDF8020068B1BDF80230BDF800201D
:10BED0000E490F4FC91BC908012747EA01400EA1AF
:10BEE00006F03EFABDF8040058B1BDF80420074939
:10BEF000074BC91AC908012343EA0140164906F055
:10BF000023FA304604B0BDE8F081000020FF0300B2
:10BF100008FF030068E503005468652072657175C9
:10BF200065737465642054582F5258207061636B98
:10BF30006574206C656E67746820697320746F6F18
:10BF4000206C6F6E672062792025752F2575206F14
:10BF500063746574732E0000B4E503002DE9F041AD
:10BF600005460F460F4C0121204604F0C8FA06464C
:10BF700000BF00BF00BF00BFBFF35F8F00BF00BFA7
:10BF800000BF0EB9012000E0002040B1284602F0B9
:10BF90000BFF08B1BDE8F081024806F00DFC00BFC0
:10BFA000F8E70000D86E002070B506460D4616B1C1
:10BFB0004FF4064070BD287920B1012809D002282D
:10BFC00015D111E00220287128460CF0DFFF04464D
:10BFD00010E0284601F014F8044648F20960844253
:10BFE00001D141F61D5405E041F61D5402E048F22E
:10BFF0000E6400BF00BF2046DCE770B588B0054680
:10C000000C461646142103A8FBF7F5FAA07818B9D8
:10C0100001208DF80A0002E0A0788DF80A0020883F
:10C02000ADF8080002A80390A07901A90EF0C7FAA4
:10C03000E0790DF105010EF0C2FAE07808B10120B7
:10C0400000E000209DF8061060F3C3018DF8061093
:10C05000207908B1012000E000209DF8061060F36F
:10C0600004118DF80610607908B1012000E000206D
:10C070009DF8061060F300018DF80610207A08B1D3
:10C08000022000E001209DF8061060F342018DF8C7
:10C09000061001A804906089ADF81400A089ADF8DD
:10C0A0001600E089ADF8180020690790324603A910
:10C0B0002846ABDF08B070BD70B5044620793D2836
:10C0C00002D141F23D0001E04FF48850054620883E
:10C0D0000022294602F0B2FD70BD000010B500211B
:10C0E000034804F00CFA044684F3100010BD00006D
:10C0F000FC91002070B505460C464FF4803000FAE4
:10C1000004F1284600F05CFD70BD70B505460C4694
:10C110004FF4A07000EB840086B23146284600F050
:10C120006FFD70BD2DE9F04704460D4616461F46CB
:10C130004FF4803000FA05F84FF4A07000EB850052
:10C140001FFA80F926F07F464146206806F0ECFB96
:10C150004146206806F0E2FB4946206806F0D7FB1E
:10C1600032462946206806F0C9FB4146206806F0A1
:10C17000D8FB1FB14146206806F0D9FBBDE8F08727
:10C1800010B50446206806F0BEFB10BD2DE9F0474F
:10C1900004460D4617466079324941F820706079AF
:10C1A000314901EBC000007968B108262F49304AB7
:10C1B000891AC908022242EA01402EA106F0BAF803
:10C1C0003046BDE8F08729882068C0F8081500BF10
:10C1D00094F90420AB7810461946002808DB4FEA92
:10C1E000417C4FEA1C68DFF8B0C00CF800800BE01F
:10C1F0004FEA417C4FEA1C69DFF8A0C000F00F084D
:10C20000A8F104080CF8089000BF00BF94F90410CE
:10C21000084600280DDB00BF00BF00F01F0301220D
:10C220009A4043099B0003F1E023C3F8002100BFBB
:10C2300000BF00BF00BF012061790B4A02EBC101C2
:10C2400008716079114641F8304000260749084AD4
:10C25000891AC908032242EA014011A106F06AF8CE
:10C260003046AEE7BC700020C0700020A0FF030085
:10C2700008FF030052544320696E7374616E636556
:10C2800020616C726561647920696E697469616CA2
:10C29000697A65642E00000000E400E018ED00E01B
:10C2A0005254433A20696E697469616C697A6564B5
:10C2B0002E00000010B5014691F90400002807DBAC
:10C2C00000F01F0301229A40024B440943F8242046
:10C2D00000BF10BD00E200E070B505460C462246E6
:10C2E0000221284600F078FC70BD10B504464FF4DA
:10C2F0008271204600F084FC10BD10B50446002178
:10C30000206806F017FB10BD10B504460421206814
:10C3100006F010FB10BD2DE9F84F0446884615467F
:10C3200099464FF4803000FA08FA4FF4A07000EB01
:10C3300088001FFA80FB25F07F455146204600F01B
:10C340003FFC206806F0DFFA06464146206806F00A
:10C35000CFFA009032464146206806F0CFFA59469F
:10C36000206806F0D4FA314600980EF067FF0128E5
:10C3700006D1102007F02CF85946206806F0C7FABD
:10C38000206806F0C0FA0646314628460EF056FFF1
:10C3900007465146206806F0C4FA012F0FD16A1CE7
:10C3A0004146206806F0AAFA102007F011F820682C
:10C3B00006F0A9FAB04225D00D20BDE8F88F2A4634
:10C3C0004146206806F09AFA206806F09CFA064674
:10C3D000681E31460EF032FF07466FF07F40A0EB3B
:10C3E0000900B84201D20D20E7E75FB96A1C414657
:10C3F000206806F083FA206806F085FAB04201D082
:10C400000D20DAE701225146204600F0E5FB00202E
:10C41000D3E700002DE9F04104460D46288820703E
:10C42000010A617002210E46AA783146761C6254D8
:10C43000EA783146761C625400BF042E01D10120F7
:10C4400000E0002007463FB900BF054A4FF4707175
:10C450000020FAF753FF00BF00BF3046BDE8F0816F
:10C460001CF3030070B506460C4615462B462246C3
:10C4700000213046FFF77EFC70BD014601F08000D0
:10C48000802801D1002000E0102001F00F021044AC
:10C49000C0B27047014601F08000802801D10448F5
:10C4A00001E00348903801F00F0200EB02107047E2
:10C4B000108700202DE9F84305460E46174698469A
:10C4C00069461048006803F022FF044614B90420AE
:10C4D000BDE8F8831C212046FBF78DF80120207170
:10C4E0002560C4F8088008480068B6FBF0F0E060FA
:10C4F000676169460348006803F033FF0CF05EFC97
:10C500000020E5E76CDD030060DD030010B50446A4
:10C51000D4E90321501828DF10BD000010B50446EF
:10C52000207820B1012803D002280ED105E00CE0CC
:10C5300004F0F2FB04F078FD07E000E000BF0448DF
:10C5400004F090FC0028F9D000BF00BF10BD00002F
:10C550008C81002070B500F047F8044600BF2546E6
:10C5600035B100BF0CA272212846FAF7C7FE00BF02
:10C5700000BF0E490E4A891AC908032242EA014047
:10C580000CA105F0D7FE00BF00BF05F045FD002857
:10C59000FBD100BF70BD00004472697665735C65B5
:10C5A00073625F6465766963652E6300C8FF03008C
:10C5B00008FF0300456E68616E6365642053686F11
:10C5C000636B4275727374205472616E736D69741B
:10C5D000746572204578616D706C6520737461724A
:10C5E0007465642E0000000010B58AB023A00068B6
:10C5F000099023A00068089022A103C9CDE9060193
:10C60000182222496846FAF7DDFF01208DF8000064
:10C610004FF41670ADF80C0001208DF808001C488E
:10C62000019000208DF801008DF81400684604F098
:10C63000ADFB044600BF204608B10AB010BD00BFE4
:10C6400009A804F065FC044600BF204600B1F4E7E9
:10C6500000BF08A804F076FC044600BF204600B1E5
:10C66000EBE700BF082106A804F086FC044600BFE3
:10C67000204600B1E1E700BF2046DEE7E7E7E7E755
:10C68000C2C2C2C2E7C2C3C4C5C6C7C850D903002C
:10C690001DC5020010B506F043FC10BD10B5812089
:10C6A00006F0EEFC10BD10B5822006F0E9FC10BDCE
:10C6B00010B5832006F0E4FC10BD10B5842006F010
:10C6C000DFFC10BD10B5852006F0DAFC10BD10B5FA
:10C6D000862006F0D5FC10BD10B5872006F0D0FCF2
:10C6E00010BD10B5882006F0F1FC10BD10B506F0A5
:10C6F0003DFC10BD10B5012006F01CFD10BD10B5AD
:10C70000022006F017FD10BD10B5032006F012FD43
:10C7100010BD10B5042006F00DFD10BD10B50520AC
:10C7200006F008FD10BD10B5062006F003FD10BD93
:10C7300010B5072006F0FEFC10BD0000F8B5082477
:10C7400010F0FCF82046FFF7A5FE0546A87B03285D
:10C7500015D0286898B92046FFF78FFE0121814047
:10C76000CE433146074806F0A3FD07480068009015
:10C770008DF80240684605490968884700BF00BF38
:10C78000F8BD0000807000209CDC03007470002065
:10C7900070B500BF00BF1849096808460146164A2F
:10C7A000116000BF00BF00BF00BF00BFBFF36F8FAD
:10C7B00000BF00BF00BF00BF00BF00BFBFF34F8F6F
:10C7C00000BF00BF00BF00BF04460FE094FAA4F012
:10C7D000B0FA80F52846FCF7DAFA06460120A840B0
:10C7E00084432946304610F0AFFA00BF002CEDD14B
:10C7F00010F0BAF870BD00006C74024010B5054826
:10C800000078FFF73AFE044621460248007810F00F
:10C810009BFA10BD79700020F8B500BF2148006870
:10C82000C0B2044620480078FFF727FE012101FA34
:10C8300000F01E490988C94389B21D4A1268114394
:10C84000084018B11848007810F0B2F904F08000E0
:10C8500008B9002000E08020134908700020FFF78D
:10C860000CFE012686408020FFF707FE0121814053
:10C870000E43F54329460E4806F01AFD8020FFF7C7
:10C88000FCFD012101FA00F0084909680843074945
:10C8900008600848006800906846074909688847AA
:10C8A000F8BD000080740240797000207C70002088
:10C8B00080700020A8DC03007470002038B50020D0
:10C8C000009000BF1648006880B2ADF802008820D2
:10C8D000FFF7D3FD012101FA00F400BF10496039D0
:10C8E000086810B94FF0FF3005E000F48031B1F571
:10C8F000803F00D1002000BF401C30B10820FFF76E
:10C90000BCFD012101FA00F0044306480068204301
:10C9100004490860684604490968884738BD000032
:10C92000207502407C700020747000207047000069
:10C9300038B500BF06F078FC0546284606F05EFCD8
:10C9400000BF00BF00BF00BFBFF36F8F00BF00BFBD
:10C9500000BF00BF00BF00BFBFF34F8F00BF00BFCD
:10C9600000BF2C4604F4807050B1012019490870B2
:10C97000194800680090684618490968884700BF50
:10C9800004F4007058B10020124908701248001DCC
:10C9900000680090684611490968884700BF04F4A0
:10C9A0008060A8B10B48007890B100200949087058
:10C9B00001200B49086000BF582006F057FC0648CC
:10C9C000083000680090684604490968884700BF3D
:10C9D00038BD000078700020ACDC030074700020CB
:10C9E0000875024008B5002005490870054908701F
:10C9F000054800680090684604490968884708BDF2
:10CA000078700020797000208CDC030074700020A6
:10CA10000278072A38D2DFE802F037040712222B07
:10CA2000340000220A7030E001220A7003898B81F1
:10CA30008388CB81C2688A6000230B7425E00222C0
:10CA40000A7003898B818388CB81C2688A60827D6A
:10CA5000062A01D1012300E000230B7415E0032214
:10CA60000A70C3888B810389CB81C2688A600CE01D
:10CA700004220A70C3888B810023CB8100228A6044
:10CA800003E005220A7000E000BF00BF704700000D
:10CA900070B50546002409E0064850F8240020B18E
:10CAA000044850F8241028468847641C042CF3D30B
:10CAB00070BD00004C89002030B587B004460D469B
:10CAC0002068806808B907B030BD182101A8FAF7BE
:10CAD00092FD0295A0680690207910B1012815D129
